S012000066696E616C20636F64652E737265634D
S11300000C942A000C94E6010C9447000C944700CD
S11300100C9447000C9447000C9447000C94470040
S11300200C9447000C9447000C9447000C94470030
S11300300C9447000C9447000C9447000C94470020
S11300400C9447000C9447000C9447000C94470010
S11300500C94470011241FBECFE5D8E0DEBFCDBF0E
S113006012E0A0E6B0E0ECE3F5E102C005900D92E9
S1130070A435B107D9F722E0A4E5B2E001C01D928E
S1130080A236B207E1F70E94BA090C949C0A0C94B8
S1130090000094EA96BF06B607FEFDCF91B1987FA3
S11300A0983011F0903179F483B984E886BF06B6AC
S11300B007FEFDCF91B1987F983139F081E09034FB
S11300C029F480E0089581E0089580E0089584E9AA
S11300D086BF06B604FCFDCF089583B984E886BFC5
S11300E006B607FEFDCF91B1987F81E0983209F4FE
S11300F080E00895CF93DF93C82F8EE40E944900D7
S1130100DC2FD07F8091540284608D2B0E946D007F
S113011089EF90E00197F1F700C00000809154024C
S11301208D2B0E946D0089EF90E00197F1F700C0DC
S1130130000090E1C99FE001112480915402846081
S11301408C2B0E946D0089EF90E00197F1F700C0BD
S11301500000809154028C2B0E946D0089EF90E086
S11301600197F1F700C000000E946700DF91CF9172
S11301700895CF93C82F8EE40E944900C07F8091D8
S1130180540284608C2B0E946D0089EF90E00197EB
S1130190F1F700C00000809154028C2B0E946D0086
S11301A089EF90E00197F1F700C000000E9467001A
S11301B0CF9108958093540280E30E94B90080E3B4
S11301C00E94B90080E30E94B90080E20E94B90055
S11301D087E893E10197F1F700C0000088E20E94EC
S11301E07A008CE00E947A0086E00E947A0081E026
S11301F00E947A000895CF93DF93C82F8EE40E9463
S11302004900DC2FD07F80915402D82B8D2F85603C
S11302100E946D00DA7F809154028D2B0E946D0044
S113022080E1C89F90011124C0915402C560C22B83
S11302308C2F0E946D002C2F2A7F80915402822BD8
S11302400E946D000E946700DF91CF910895623093
S113025031F0633031F0613029F4805C03C08C5E8E
S113026001C08C5A80680E947A00089581E00E943F
S11302707A0008951F93CF93DF930097B1F0EC01B8
S113028010E007C0FE01E20FF31F80810E94FB0013
S11302901F5F212F30E0FE0101900020E9F7319724
S11302A0EC1BFD0B2E173F0768F3DF91CF911F91D5
S11302B0089530EF2FEF9FEE6FED5FEB4FE737BB05
S11302C028BB88B38F7088BB000086B38F7080937F
S11302D059028F30B1F7E3EFF1E03197F1F700C045
S11302E0000086B38F70809359028F30A1F3E7EE3C
S11302F0F3E03197F1F700C0000086B38F7080936C
S113030059028F3041F398BB000086B38F708093FD
S113031059028F3019F010925C0224C068BB0000AF
S113032086B38F70809359028F3021F081E08093DF
S11303305C0218C058BB000086B38F7080935902CA
S11303408F3021F082E080935C020CC048BB000037
S113035086B38F70809359028F3009F4B0CF83E055
S113036080935C02809159028E3059F4E0915C02D2
S1130370F0E0EE0FFF1FEE0FFF1FE05AFF4F8081EA
S113038008958D3059F4E0915C02F0E0EE0FFF1F08
S1130390EE0FFF1FE05AFF4F818108958B3059F40F
S11303A0E0915C02F0E0EE0FFF1FEE0FFF1FE05A3A
S11303B0FF4F82810895E0915C02F0E0EE0FFF1F91
S11303C0EE0FFF1FE05AFF4F838108951F920F9293
S11303D00FB60F9211248F939F93809155029091A1
S11303E05602019769F41EBC8CB59DB590935802D2
S11303F0809357021DBC1CBC1092560210925502E9
S11304008091550290915602892B49F48EB58160F2
S11304108EBD81E090E090935602809355029F91A7
S11304208F910F900FBE0F901F90189580E888BB96
S1130430B09925C0B19925C0B29925C0B39925C0FA
S113044080E488BBB09923C0B19923C0B29923C07A
S1130450B39923C080E288BBB09921C0B19921C06F
S1130460B29921C0B39921C080E188BBB0991FC063
S1130470B1991FC0B2991FC0B3991FC0089581E6F6
S1130480089583E3089582E3089581E3089582E65D
S1130490089586E3089585E3089584E3089583E643
S11304A0089589E3089588E3089587E3089584E629
S11304B0089583E2089580E308958AE208958F926F
S11304C09F92AF92BF92CF92DF92EF92FF920F93DF
S11304D01F93CF93DF93CDB7DEB7A4970FB6F894ED
S11304E0DEBF0FBECDBF89E0EAE9F0E0DE01119680
S11304F001900D928A95E1F780915D02833471F445
S1130500DE0111960D900020E9F7119788E0E3EAE7
S1130510F0E001900D928A95E1F70FC0803569F4FF
S1130520DE0111960D900020E9F7119785E0EBEAC2
S1130530F0E001900D928A95E1F70E94360160E0A7
S113054081E00E942701CE0101960E943A01809128
S11305505D02833409F082C081EC8BBB83EC99E0AB
S11305600197F1F700C000000F2EFAE38F2E912CB3
S1130570F02D0F2EF4E2AF2EB12CF02D0F2EF8E556
S1130580CF2EF2E0DF2EF02D0E9416028A3219F4EB
S11305900E94C603E8C0909A00C000C00000909872
S11305A08091570290915802B4010E94190A8B015C
S11305B04AE0BE016B5E7F4FC8010E945F0A61E0A2
S11305C081E00E9427018CE890E00E943A0162E0F9
S11305D081E00E942701C501801B910B4AE0BE0106
S11305E06B5E7F4F9C012C9DC0012D9D900D3C9D09
S11305F0900D11240E945F0ACE0145960E943A0193
S113060062E08AE00E94270187E990E00E943A01B3
S1130610093211052CF0AF9AAE98AD98AC9817C07A
S11306200D3311052CF0AF98AE9AAD98AC980FC06D
S1130630013511052CF0AF98AE98AD9AAC9807C06F
S11306400536110524F0AF98AE98AD98AC9A83EFB7
S113065091E00197F1F700C0000096CF803509F0D2
S113066082C082EC8BBB83EC99E00197F1F700C068
S113067000000F2EFAE38F2E912CF02D0F2EF4E2B2
S1130680AF2EB12CF02D0F2EF8E5CF2EF2E0DF2E99
S1130690F02D0E9416028A3219F40E94C60363C028
S11306A0919A00C000C000009198809157029091E7
S11306B05802B4010E94190A8B014AE0BE016B5E24
S11306C07F4FC8010E945F0A61E081E00E94270118
S11306D08CE890E00E943A0162E081E00E942701E8
S11306E0C501801B910B4AE0BE016B5E7F4F9C01EC
S11306F02C9DC0012D9D900D3C9D900D11240E94B8
S11307005F0ACE0145960E943A0162E08AE00E94A7
S1130710270187E990E00E943A01093211052CF083
S1130720AF9AAE98AD98AC9817C00D3311052CF064
S1130730AF98AE9AAD98AC980FC0013511052CF066
S1130740AF98AE98AD9AAC9807C00536110524F061
S1130750AF98AE98AD98AC9A83EF91E00197F1F71A
S113076000C0000096CFA4960FB6F894DEBF0FBE6B
S1130770CDBFDF91CF911F910F91FF90EF90DF904C
S1130780CF90BF90AF909F908F9008959F92AF921B
S1130790BF92CF92DF92EF92FF920F931F93CF936A
S11307A0DF930E94360160E081E00E94270185ED1D
S11307B090E00E943A0161E081E00E94270189EA09
S11307C091E00E943A0162E08CEF0E9427018CEDD7
S11307D090E00E943A0161E08FE00E9427018CE3DF
S11307E00E94FB00E12CF12CCC24C394D12C6894FE
S11307F0992491F8A12CBB24B394D0E00E94590110
S11308008233B9F461E08FE00E9427018CE30E94F7
S1130810FB0062E08BE00E94270180E20E94FB0063
S1130820C701409684976CF1CB2CDD2EE12CF12C82
S11308303DC0883389F462E08BE00E9427018CE399
S11308400E94FB0061E08FE00E94270180E20E9489
S1130850FB00C92CDA2C31C08A3271F481E0C8164D
S1130860D10419F40E9422082FC092E0C916D104C1
S113087021F50E945F0228C08337F9F40E947004B6
S113088023C0CB2CDD2E870100551F4FCCEF63E036
S11308908C2F0E942701F80181918F010E94FB0097
S11308A0CF5FCC30A1F7FFEFEF1AFF0A83EF91E09F
S11308B00197F1F700C00000A1CFC70140968497CB
S11308C014F3E12CF12CF2CFDF91CF911F910F9112
S11308D0FF90EF90DF90CF90BF90AF909F900895DE
S11308E07F928F929F92AF92BF92CF92DF92EF92BC
S11308F0FF920F931F93CF93DF930E94360160E022
S113090081E00E94270184EE90E00E943A0161E0B8
S113091081E00E9427018EEE90E00E943A0162E09D
S11309208BEF0E9427018CEF90E00E943A0160E077
S11309308DE00E9427018CE30E94FB0081E090E09F
S113094090935B0280935A02E12CF12CCC24C39443
S1130950D12C0F2EF3E07F2EF02D812C6894992456
S113096091F8A12CBB24B394D0E00E94590191E0EA
S1130970C916D10401F5B0925A02D0935B028233B6
S113098009F499C0883389F461E08DE00E9427015D
S11309908CE30E94FB0060E08DE00E94270180E26E
S11309A00E94FB00C92CDA2C86C0833709F083C06F
S11309B00E94700587C0E2E0CE16D104A1F59092A2
S11309C05A02A0925B02823389F460E08DE00E94B7
S11309D027018CE30E94FB0061E08DE00E94270167
S11309E080E20E94FB00CB2CDD2E44C0883389F4C6
S11309F062E089E00E9427018CE30E94FB0061E031
S1130A008DE00E94270180E20E94FB00C72CD82CB5
S1130A1031C08A3219F40E94E80554C0833751F575
S1130A200E9470054FC0F3E0CF16D10419F57092FF
S1130A305A0280925B02823389F461E08DE00E9465
S1130A4027018CE30E94FB0062E089E00E942701F9
S1130A5080E20E94FB00C92CDA2C0CC0883351F0D0
S1130A608A3219F40E94C6032DC0833719F40E94F8
S1130A70700528C0C70140968497A4F487010055E7
S1130A801F4FCCEF63E08C2F0E942701F801819166
S1130A908F010E94FB00CF5FCC30A1F7FFEFEF1A6C
S1130AA0FF0A02C0E12CF12C83EF91E00197F1F7EA
S1130AB000C000005ACFC70140968497FCF2E12C95
S1130AC0F12CF2CFDF91CF911F910F91FF90EF9016
S1130AD0DF90CF90BF90AF909F908F907F900895BC
S1130AE00E94360160E081E00E9427018AE091E0E3
S1130AF00E943A0161E081E00E94270185E191E0D2
S1130B000E943A0162E08DEF0E9427018DE191E09D
S1130B100E943A0161E08DE00E9427018CE30E946B
S1130B20FB0083E480935D02E12CF12C0F2EF0E5B1
S1130B30DF2EF02DD3E40E945901823389F4D0933F
S1130B405D0261E08DE00E9427018CE30E94FB00BE
S1130B5062E089E00E94270180E20E94FB0017C046
S1130B60883389F4D0925D0262E089E00E94270113
S1130B708CE30E94FB0061E08DE00E94270180E28B
S1130B800E94FB0004C08A3211F40E947004C70161
S1130B9040968497A4F4870100551F4FCCEF63E07F
S1130BA08C2F0E942701F80181918F010E94FB0084
S1130BB0CF5FCC30A1F7FFEFEF1AFF0A02C0E12CA0
S1130BC0F12C83EF91E00197F1F700C00000B3CF5F
S1130BD09F92AF92BF92CF92DF92EF92FF920F93C8
S1130BE01F93CF93DF930E94360160E081E00E945F
S1130BF027018EEE90E00E943A0161E081E00E94BC
S1130C00270184E291E00E943A0162E08CEF0E94A5
S1130C10270183E391E00E943A0161E08FE00E94A2
S1130C2027018CE30E94FB00E12CF12CCC24C3941B
S1130C30D12C6894992491F8A12CBB24B394D0E0CE
S1130C400E9459018233B9F461E08FE00E942701C8
S1130C508CE30E94FB0062E08BE00E94270180E2AB
S1130C600E94FB00C701409684976CF1CB2CDD2ECB
S1130C70E12CF12C3DC0883389F462E08BE00E94C2
S1130C8027018CE30E94FB0061E08FE00E942701B2
S1130C9080E20E94FB00C92CDA2C31C08A3271F444
S1130CA081E0C816D10419F40E9492062FC092E084
S1130CB0C916D10421F50E94600728C08337F9F4CE
S1130CC00E94700423C0CB2CDD2E870100551F4FDA
S1130CD0CCEF63E08C2F0E942701F80181918F01F2
S1130CE00E94FB00CF5FCC30A1F7FFEFEF1AFF0AA1
S1130CF083EF91E00197F1F700C00000A1CFC70195
S1130D004096849714F3E12CF12CF2CFDF91CF912C
S1130D101F910F91FF90EF90DF90CF90BF90AF9015
S1130D209F900895AF92BF92CF92DF92EF92FF927D
S1130D301F93CF93DF93CDB7DEB764970FB6F894C4
S1130D40DEBF0FBECDBF0E94360160E081E00E948D
S1130D50270185E591E00E943A0161E081E00E946B
S1130D602701A12CB12CC12CD12C0E945901182F80
S1130D7080ED810F8A30D0F461E081E08A0D0E9419
S1130D802701812F0E94FB00E1E0F0E0EC0FFD1F42
S1130D90EA0DFB1D10838FEFA81AB80AC60140960E
S1130DA042970CF45BC0C12CD12C6CC01A3209F0F0
S1130DB050C0CE0101960E94410A90936102809333
S1130DC0600260917000709171000E94190A7B01A9
S1130DD0EE0CFF1CEE0CFF1CEE0CFF1CEE0CFF1CBB
S1130DE0EE0CFF1C62E08CEF0E94270180915D02F3
S1130DF08334B1F483E691E00E943A01DE981E1434
S1130E001F0464F480E090E0E7EAF1E63197F1F73B
S1130E1000C000000196E816F906B1F7DE9A17C083
S1130E208035A9F485E791E00E943A01DF981E1409
S1130E301F0464F480E090E0E7EAF1E63197F1F70B
S1130E4000C000000196E816F906B1F7DF9A0E9487
S1130E5070051337F1F40E94E80522C0C6018E5BC9
S1130E609E4F7C011CEF63E0812F0E942701F70154
S1130E7081917F010E94FB001F5F1C30A1F7FFEFEF
S1130E80CF1ADF0A83EF91E00197F1F700C0000069
S1130E906CCFC601409642970CF3C12CD12CF2CFF3
S1130EA064960FB6F894DEBF0FBECDBFDF91CF912D
S1130EB01F91FF90EF90DF90CF90BF90AF90089577
S1130EC0AF92BF92CF92DF92EF92FF921F93CF9394
S1130ED0DF93CDB7DEB764970FB6F894DEBF0FBECD
S1130EE0CDBF0E94360160E081E00E94270187E8BF
S1130EF091E00E943A0161E081E00E942701A12C67
S1130F00B12CC12CD12C0E945901182F80ED810FD6
S1130F108A30D0F461E081E08A0D0E942701812F9C
S1130F200E94FB00E1E0F0E0EC0FFD1FEA0DFB1D69
S1130F3010838FEFA81AB80AC601409642970CF4A2
S1130F404FC0C12CD12C60C01A3209F044C0CE016C
S1130F5001960E94410A90935F0280935E026FE1C2
S1130F6070E00E94190A7B0162E08CEF0E94270165
S1130F7080915D028334B1F486E991E00E943A01E4
S1130F80DE981E141F0464F480E090E0E7EAF1E6C2
S1130F903197F1F700C000000196E816F906B1F7A1
S1130FA0DE9A17C08035A9F485E791E00E943A01E2
S1130FB0DF981E141F0464F480E090E0E7EAF1E691
S1130FC03197F1F700C000000196E816F906B1F771
S1130FD0DF9A0E9470051337F1F40E94E80522C0DD
S1130FE0C6018E5B9E4F7C011CEF63E0812F0E9443
S1130FF02701F70181917F010E94FB001F5F1C30D4
S1131000A1F7FFEFCF1ADF0A83EF91E00197F1F721
S113101000C0000078CFC601409642970CF3C12C63
S1131020D12CF2CF64960FB6F894DEBF0FBECDBFBD
S1131030DF91CF911F91FF90EF90DF90CF90BF9001
S1131040AF9008959F92AF92BF92CF92DF92EF92AA
S1131050FF920F931F93CF93DF930E94360160E0BA
S113106081E00E94270188EA91E00E943A0161E050
S113107081E00E94270181EB91E00E943A0162E045
S11310808CEF0E9427018CEB91E00E943A0161E011
S11310908FE00E9427018CE30E94FB00E12CF12CDD
S11310A0CC24C394D12C6894992491F8A12CBB240A
S11310B0B394D0E00E9459018233B9F461E08FE027
S11310C00E9427018CE30E94FB0062E08BE00E94F7
S11310D0270180E20E94FB00C701409684976CF1CF
S11310E0CB2CDD2EE12CF12C3DC0883389F462E059
S11310F08BE00E9427018CE30E94FB0061E08FE0FB
S11311000E94270180E20E94FB00C92CDA2C31C026
S11311108A3271F481E0C816D10419F40E94CC0813
S11311202FC092E0C916D10421F50E94330928C0CA
S11311308337F9F40E94C60323C0CB2CDD2E87012C
S113114000551F4FCCEF63E08C2F0E942701F8015C
S113115081918F010E94FB00CF5FCC30A1F7FFEF9C
S1131160EF1AFF0A83EF91E00197F1F700C0000046
S1131170A1CFC7014096849714F3E12CF12CF2CF50
S1131180DF91CF911F910F91FF90EF90DF90CF905F
S1131190BF90AF909F900895CF92DF92EF92FF920D
S11311A01F93CF93DF93CDB7DEB764970FB6F89450
S11311B0DEBF0FBECDBF0E94360160E081E00E9419
S11311C0270183EE91E00E943A0161E081E00E94F0
S11311D027014AE0BE016F5F7F4F809170009091BC
S11311E071000E945F0A0E943A01C12CD12C0E9416
S11311F059018A3219F40E94220827C0833719F44E
S11312000E94220822C0C60140964997ACF4C60148
S113121087539E4F7C011CEF63E0812F0E942701BE
S1131220F70181917F010E94FB001F5F1C30A1F731
S1131230FFEFCF1ADF0A02C0C12CD12C83EF91E05B
S11312400197F1F700C00000D2CF64960FB6F8946E
S1131250DEBF0FBECDBFDF91CF911F91FF90EF9006
S1131260DF90CF900895AF92BF92CF92DF92EF922A
S1131270FF921F93CF93DF93CDB7DEB764970FB67A
S1131280F894DEBF0FBECDBF0E94360160E081E05E
S11312900E9427018BE092E00E943A0161E081E024
S11312A00E942701A12CB12CC12CD12C0E945901E0
S11312B0182F80ED810F8A30C8F461E081E08A0D37
S11312C00E942701812F0E94FB00E1E0F0E0EC0F77
S11312D0FD1FEA0DFB1D10838FEFA81AB80AC60183
S11312E040964A97ACF0C12CD12C26C01A3259F43E
S11312F0CE0101960E94410A909371008093700080
S11313000E94220827C01337F1F40E94220822C049
S1131310F601E051FE4F7F011CEF63E0812F0E9434
S11313202701F70181917F010E94FB001F5F1C30A0
S1131330A1F7FFEFCF1ADF0A83EF91E00197F1F7EE
S113134000C00000B3CFC60140964A970CF3C12CED
S1131350D12CF2CF64960FB6F894DEBF0FBECDBF8A
S1131360DF91CF911F91FF90EF90DF90CF90BF90CE
S1131370AF900895C0EFC7BB8FEF8ABB8BBB84BB14
S113138088E00E94DA0083EF81BBCBBB81EE94E05E
S11313900197F1F700C0000088E00E94DA008BB7E3
S11313A080648BBF85B7816085BF78940E943601C5
S11313B060E082E00E9427018DE292E00E943A01FF
S11313C062E08FEF0E94270187E392E00E943A01D6
S11313D063E08CEF0E94270183E492E00E943A01CB
S11313E0E12CF12C0E9416028A3211F40E9470053D
S11313F0C70140964297A4F48701065E1D4FC0E0E2
S113140061E08C2F0E942701F80181918F010E94D5
S1131410FB00CF5FC031A1F7FFEFEF1AFF0A02C054
S1131420E12CF12C83EF91E00197F1F700C000006B
S1131430D9CF97FB072E16F4009407D077FD09D077
S11314400E942D0A07FC05D03EF4909581959F4F8C
S11314500895709561957F4F0895AA1BBB1B51E1B8
S113146007C0AA1FBB1FA617B70710F0A61BB70B10
S1131470881F991F5A95A9F780959095BC01CD01B5
S11314800895FC0188279927E89421912032E9F3F3
S1131490293010F02E30C8F32B3241F02D3239F4BC
S11314A0689404C00E946A0A820F911D21912053FE
S11314B02A30C0F31EF4909581959F4F0895BB2761
S11314C04A3031F4992322F4BDE2909581959F4FDF
S11314D00C94730A7AE0979F902D879F802D910D2D
S11314E011240895BB27FB015527AA27880F991FAC
S11314F0AA1FA41710F0A41B83955051B9F7A05D3F
S1131500AA3308F0A95DA193009779F7B111B193BB
S11315101192CB010C948C0ADC01FC01672F7191B0
S11315207723E1F7329704C07C916D9370836291C5
S10F1530AE17BF07C8F30895F894FFCF6E
S113153C733D302A6239383763363534643332318B
S113154C640050726573732053746F7020627574E9
S113155C746F6E20746F204261636B006F696C2032
S113156C766F6C756D65006D6C004F696C205479E9
S113157C706500436F636F6E75740050616C6D0021
S113158C53656C656374206F7074696F6E20616E43
S113159C6420707265737320537461727420627565
S11315AC74746F6E005072696365202620566F6CDC
S11315BC756D65002044656E73697479200020474D
S11315CC657474696E67204F696C200020507269D1
S11315DC636526566F6C756D650020202053656C11
S11315EC65637420002043204F696C200020502038
S11315FC4F696C00496E636C756465205072696345
S113160C652000496E636C75646520566F6C756D4E
S113161C6500507265737320537461727420627523
S113162C74746F6E0020456E746572205072696319
S113163C65200046696C6C696E672043204F696CA9
S113164C202E2E2E0046696C6C696E672050204F3C
S113165C696C202E2E2E0020456E74657220566FF8
S113166C6C756D65200046696C6C696E672043204F
S113167C6F696C202E2E2E00202050726963652019
S113168C00556E697420507269636500557064610D
S113169C74652050726963650050726573732042DF
S11316AC61636B20627574746F6E20746F20426179
S11316BC636B0020556E6974205072696365200059
S11316CC50726573732053746172742062757474F0
S11316DC6F6E20746F2053617665002055706461C1
S11316EC74652050726963652000536D61727420B7
S11316FC4F696C20737570706C696572002020578B
S113170C656C636F6D650047726F7570204E6F2E3C
S113171C3034005072657373204120746F205374FD
S107172C617274006E
S9030000FC
